S0110000506F73746C61625F342E73726563AB
S11300000C9434000C9451000C9451000C94510045
S11300100C9460010C9451000C9451000C94510008
S11300200C9451000C9451000C9451000C94510008
S11300300C9451000C9451000C9451000C945100F8
S11300400C9451000C9451000C9451000C945100E8
S11300500C9451000C9442010C9451000C945100E6
S11300600C9451000C94510011241FBECFEFD8E022
S1130070DEBFCDBF11E0A0E0B1E0E8E5F3E002C0EF
S113008005900D92A631B107D9F721E0A6E1B1E0C0
S113009001C01D92AC31B207E1F70E949F000C949D
S11300A0AA010C9400008FEF8AB91BB81092C1000A
S11300B08FE384B915B887B18C6387B987B18C7F16
S11300C087B988B1836088B90895E8E6F0E0808153
S11300D082608083ECE6F0E0808183608083089511
S11300E0ECE7F0E080818760808380818064808396
S11300F080818F778083808180628083EAE7F0E06B
S11301001082808180688083808188608083808180
S113011087608083EEE7F0E08081816080830895CA
S1130120282F22952F7030E0309317012093160169
S11301308F7090E090931901809318010895F894BA
S11301400E9470000E9453000E9465007894809180
S11301500401909105018F3F910529F024F010923C
S113016005011092040180910401909105019923E5
S113017034F48FEF90E09093050180930401809113
S1130180040185B98091040190910501805491097D
S11301908034910520F488B1846088B903C088B1A3
S11301A08B7F88B980910401909105018038910575
S11301B024F08BB180688BB903C08BB18F778BB976
S11301C08091040190910501803C910524F088B14F
S11301D0846088B903C088B18B7F88B98091040199
S11301E090910501992334F48BB18F778BB988B141
S11301F08B7F88B9EAE7F0E0808180648083CAE17C
S1130200D1E088810E949000E0911801F0911901D9
S1130210EA5FFE4F80818BB988B1806188B988B16B
S1130220877F88B98FE19EE40197F1F700C0000051
S113023088810E949000E0911601F0911701EA5F15
S1130240FE4F80818BB988B1886088B988B18F7E70
S113025088B98FE19EE40197F1F700C00000209176
S11302601A0130911B0180910401909105018217BC
S1130270930724F488B1806288B969CF88B18F7DEF
S113028088B965CF1F920F920FB60F9211248F93E6
S11302909F93EF93FF938091790090E090931B01DB
S11302A080931A01EAE7F0E0808180618083FF9106
S11302B0EF919F918F910F900FBE0F901F90189503
S11302C01F920F920FB60F9211242F933F938F9387
S11302D09F9386B181708093020196B1917090933F
S11302E0020186B1827080930001911110C02091A7
S11302F00301213061F41092030120910401309133
S113030005012F5F3F4F3093050120930401913085
S113031011F490930301811110C090910101923066
S113032061F41092010120910401309105012150E2
S113033031093093050120930401823011F4809334
S113034001019F918F913F912F910F900FBE0F90BC
S10B03501F901895F894FFCFEB
S11303580102010101003F065B4F666D7D077F6F57
S1090368777C395E797117
S9030000FC
