S01000005072656C61625F342E737265632B
S11300000C9434000C9449000C9449000C9449005D
S11300100C94C2000C9449000C9449000C944900BF
S11300200C9449000C9449000C9449000C94490028
S11300300C9449000C9449000C9449000C94490018
S11300400C9449000C9449000C9449000C94490008
S11300500C9449000C9449000C9449000C944900F8
S11300600C9449000C94490011241FBECFEFD8E032
S1130070DEBFCDBF11E0A0E0B1E0E4E1F2E002C0F8
S113008005900D92A630B107D9F70E9468000C9430
S113009008010C9400008FEF8AB91BB81092C100BC
S11300A08FE384B915B887B18C6187B987B18C7F28
S11300B087B988B1836088B90895E8E6F0E0808163
S11300C082608083ECE6F0E0808183608083089521
S11300D00E944B000E945D007894809104019091ED
S11300E005018F3F910529F024F01092050110922B
S11300F004018091040190910501992334F48FEF58
S113010090E090930501809304018091040185B9E6
S113011080910401909105018054910980349105E6
S113012020F488B1846088B903C088B18B7F88B912
S113013080910401909105018038910524F08BB1E0
S113014080688BB903C08BB18F778BB98091040120
S113015090910501803C910524F088B1846088B9B0
S113016003C088B18B7F88B9809104019091050107
S113017099230CF0B2CF8BB18F778BB988B18B7F79
S113018088B9ABCF1F920F920FB60F9211242F9301
S11301903F938F939F9396B191709093020186B190
S11301A0827080930001911110C0209103012130CD
S11301B061F41092030120910401309105012F5F35
S11301C03F4F3093050120930401913011F4909333
S11301D00301811110C090910101923061F41092D9
S11301E0010120910401309105012150310930931E
S11301F0050120930401823011F4809301019F9141
S11302008F913F912F910F900FBE0F901F901895D3
S1070210F894FFCF8C
S1090214010201010100DA
S9030000FC
